{
  "contractName": "Decentratwitter",
  "abi": [
    {
      "constant": true,
      "inputs": [],
      "name": "postCount",
      "outputs": [
        {
          "internalType": "uint256",
          "name": "",
          "type": "uint256"
        }
      ],
      "payable": false,
      "stateMutability": "view",
      "type": "function"
    },
    {
      "constant": true,
      "inputs": [
        {
          "internalType": "uint256",
          "name": "",
          "type": "uint256"
        }
      ],
      "name": "posts",
      "outputs": [
        {
          "internalType": "uint256",
          "name": "id",
          "type": "uint256"
        },
        {
          "internalType": "string",
          "name": "hash",
          "type": "string"
        }
      ],
      "payable": false,
      "stateMutability": "view",
      "type": "function"
    },
    {
      "constant": true,
      "inputs": [
        {
          "internalType": "address",
          "name": "",
          "type": "address"
        }
      ],
      "name": "profiles",
      "outputs": [
        {
          "internalType": "uint256",
          "name": "",
          "type": "uint256"
        }
      ],
      "payable": false,
      "stateMutability": "view",
      "type": "function"
    },
    {
      "constant": true,
      "inputs": [],
      "name": "tokenCount",
      "outputs": [
        {
          "internalType": "uint256",
          "name": "",
          "type": "uint256"
        }
      ],
      "payable": false,
      "stateMutability": "view",
      "type": "function"
    }
  ],
  "bytecode": "0x608060405234801561001057600080fd5b506103ea806100206000396000f3fe608060405234801561001057600080fd5b506004361061004c5760003560e01c80630b1e7f831461005157806317906c2e146100825780639f181b5e146100a0578063bbe15627146100be575b600080fd5b61006b60048036036100669190810190610221565b6100ee565b6040516100799291906102ad565b60405180910390f35b61008a6101aa565b6040516100979190610292565b60405180910390f35b6100a86101b0565b6040516100b59190610292565b60405180910390f35b6100d860048036036100d391908101906101f8565b6101b6565b6040516100e59190610292565b60405180910390f35b6002602052806000526040600020600091509050806000015490806001018054600181600116156101000203166002900480601f0160208091040260200160405190810160405280929190818152602001828054600181600116156101000203166002900480156101a05780601f10610175576101008083540402835291602001916101a0565b820191906000526020600020905b81548152906001019060200180831161018357829003601f168201915b5050505050905082565b60015481565b60005481565b60036020528060005260406000206000915090505481565b6000813590506101dd81610379565b92915050565b6000813590506101f281610390565b92915050565b60006020828403121561020a57600080fd5b6000610218848285016101ce565b91505092915050565b60006020828403121561023357600080fd5b6000610241848285016101e3565b91505092915050565b6000610255826102dd565b61025f81856102e8565b935061026f818560208601610335565b61027881610368565b840191505092915050565b61028c8161032b565b82525050565b60006020820190506102a76000830184610283565b92915050565b60006040820190506102c26000830185610283565b81810360208301526102d4818461024a565b90509392505050565b600081519050919050565b600082825260208201905092915050565b60006103048261030b565b9050919050565b600073ffffffffffffffffffffffffffffffffffffffff82169050919050565b6000819050919050565b60005b83811015610353578082015181840152602081019050610338565b83811115610362576000848401525b50505050565b6000601f19601f8301169050919050565b610382816102f9565b811461038d57600080fd5b50565b6103998161032b565b81146103a457600080fd5b5056fea365627a7a72315820a8dc099dcf1fd86491953a88c327a006e8d1c2a0de453af922b1090cd570766d6c6578706572696d656e74616cf564736f6c63430005100040",
  "source": "//SPDX-License-Identifier: MIT\npragma experimental ABIEncoderV2;\npragma solidity >=0.4.21;\n\ncontract Decentratwitter {\n    uint256 public tokenCount;\n    uint256 public postCount;\n    mapping(uint256 => Post) public posts;\n    // address --> nft id\n    mapping(address => uint256) public profiles;\n\n    struct Post {\n        uint256 id;\n        string hash;\n    }\n}\n",
  "sourcePath": "E:\\Temp_Pojects_n_Codes\\DecentraTwitter\\src\\contracts\\Decentratwitter.sol",
  "compiler": {
    "name": "solc",
    "version": "0.5.16+commit.9c3226ce.Emscripten.clang"
  },
  "schemaVersion": "3.4.11",
  "updatedAt": "2023-01-21T09:29:08.926Z",
  "networkType": "ethereum",
  "devdoc": {
    "methods": {}
  },
  "userdoc": {
    "methods": {}
  }
}